:020000040800F2
:10000000005000204D510008211E0008231E00084A
:10001000251E0008271E0008291E000800000000F9
:100020000000000000000000000000002B1E00087F
:100030002D1E0008000000002F1E0008311E0008C1
:1000400095510008955100089551000895510008F8
:1000500095510008955100089551000895510008E8
:1000600095510008955100089551000895510008D8
:1000700095510008955100089551000895510008C8
:10008000391E000895510008955100089551000847
:1000900095510008955100089551000895510008A8
:1000A0009551000895510008955100089551000898
:1000B0009551000895510008491E00089551000807
:1000C0009551000895510008955100089551000878
:1000D0009551000895510008591E000895510008D7
:1000E0009551000895510008955100080000000046
:1000F0000000000000000000000000000000000000
:0C01000000000000000000005FF808F1A3
:1001100010B5054C237833B9044B13B10448AFF341
:1001200000800123237010BDD009002000000000D2
:1001300090B2000808B5034B1BB103490348AFF365
:10014000008008BD00000000D409002090B2000823
:1001500081F0004102E000BF83F0004330B54FEA78
:1001600041044FEA430594EA050F08BF90EA020FE5
:100170001FBF54EA000C55EA020C7FEA645C7FEA78
:10018000655C00F0E2804FEA5454D4EB5555B8BF9B
:100190006D420CDD2C4480EA020281EA030382EA0C
:1001A000000083EA010180EA020281EA0303362D9E
:1001B00088BF30BD11F0004F4FEA01314FF4801C71
:1001C0004CEA113102D0404261EB410113F0004F83
:1001D0004FEA03334CEA133302D0524263EB43033A
:1001E00094EA050F00F0A780A4F10104D5F1200ED8
:1001F0000DDB02FA0EFC22FA05F2801841F1000133
:1002000003FA0EF2801843FA05F359410EE0A5F106
:1002100020050EF1200E012A03FA0EFC28BF4CF037
:10022000020C43FA05F3C01851EBE37101F00045ED
:1002300007D54FF0000EDCF1000C7EEB00006EEBFA
:100240000101B1F5801F1BD3B1F5001F0CD3490884
:100250005FEA30004FEA3C0C04F101044FEA4452DB
:1002600012F5800F80F09A80BCF1004F08BF5FEA62
:10027000500C50F1000041EB045141EA050130BD42
:100280005FEA4C0C404141EB0101013C28BFB1F554
:10029000801FE9D291F0000F04BF01460020B1FA9F
:1002A00081F308BF2033A3F10B03B3F120020CDA72
:1002B0000C3208DD02F1140CC2F10C0201FA0CF050
:1002C00021FA02F10CE002F11402D8BFC2F1200CB5
:1002D00001FA02F120FA0CFCDCBF41EA0C0190406B
:1002E000E41AA2BF01EB0451294330BD6FEA0404B4
:1002F0001F3C1CDA0C340EDC04F11404C4F120029F
:1003000020FA04F001FA02F340EA030021FA04F3B0
:1003100045EA030130BDC4F10C04C4F1200220FA07
:1003200002F001FA04F340EA0300294630BD21FA45
:1003300004F0294630BD94F0000F83F4801306BF0B
:1003400081F480110134013D4EE77FEA645C18BFFF
:100350007FEA655C29D094EA050F08BF90EA020F96
:1003600005D054EA000C04BF1946104630BD91EA8E
:10037000030F1EBF0021002030BD5FEA545C05D191
:100380004000494128BF41F0004130BD14F58004D0
:100390003CBF01F5801130BD01F0004545F0FE4144
:1003A00041F470014FF0000030BD7FEA645C1ABF79
:1003B000194610467FEA655C1CBF0B46024650EAB0
:1003C000013406BF52EA033591EA030F41F40021DC
:1003D00030BD00BF90F0000F04BF0021704730B562
:1003E0004FF4806404F132044FF000054FF0000137
:1003F00050E700BF90F0000F04BF0021704730B5F8
:100400004FF4806404F1320410F0004548BF4042CC
:100410004FF000013EE700BF42004FEAE2014FEA21
:1004200031014FEA02701FBF12F07F4393F07F4FFC
:1004300081F06051704732F07F4208BF704793F0FF
:100440007F4F04BF41F40021704730B54FF4607412
:1004500001F0004521F000411CE700BF50EA010215
:1004600008BF704730B54FF000050AE050EA0102BE
:1004700008BF704730B511F0004502D5404261EB2E
:1004800041014FF4806404F132045FEA915C3FF46F
:10049000D8AE4FF003025FEADC0C18BF03325FEA0C
:1004A000DC0C18BF033202EBDC02C2F1200300FABD
:1004B00003FC20FA02F001FA03FE40EA0E0021FAE2
:1004C00002F11444BDE600BF70B54FF0FF0C4CF4D0
:1004D000E06C1CEA11541DBF1CEA135594EA0C0F82
:1004E00095EA0C0F00F0DEF82C4481EA030621EABD
:1004F0004C5123EA4C5350EA013518BF52EA0335F8
:1005000041F4801143F4801338D0A0FB02CE4FF0A9
:100510000005E1FB02E506F00042E0FB03E54FF0D9
:100520000006E1FB03569CF0000F18BF4EF0010ED1
:10053000A4F1FF04B6F5007F64F5407404D25FEACD
:100540004E0E6D4146EB060642EAC62141EA555180
:100550004FEAC52040EA5E504FEACE2EB4F1FD0CC2
:1005600088BFBCF5E06F1ED8BEF1004F08BF5FEA40
:10057000500E50F1000041EB045170BD06F00046F2
:1005800046EA010140EA020081EA0301B4EB5C049F
:10059000C2BFD4EB0C0541EA045170BD41F4801197
:1005A0004FF0000E013C00F3AB8014F1360FDEBFBC
:1005B000002001F0004170BDC4F10004203C35DA98
:1005C0000C341BDC04F11404C4F1200500FA05F31B
:1005D00020FA04F001FA05F240EA020001F00042BC
:1005E00021F0004110EBD37021FA04F642EB060132
:1005F0005EEA430E08BF20EAD37070BDC4F10C045C
:10060000C4F1200500FA04F320FA05F001FA04F21F
:1006100040EA020001F0004110EBD37041F100010B
:100620005EEA430E08BF20EAD37070BDC4F1200516
:1006300000FA05F24EEA020E20FA04F301FA05F27E
:1006400043EA020321FA04F001F0004121FA04F226
:1006500020EA020000EBD3705EEA430E08BF20EAF6
:10066000D37070BD94F0000F0FD101F00046400030
:1006700041EB010111F4801F08BF013CF7D041EAB2
:10068000060195F0000F18BF704703F000465200B6
:1006900043EB030313F4801F08BF013DF7D043EA87
:1006A0000603704794EA0C0F0CEA135518BF95EA3D
:1006B0000C0F0CD050EA410618BF52EA4306D1D1C4
:1006C00081EA030101F000414FF0000070BD50EAE3
:1006D000410606BF1046194652EA430619D094EA6D
:1006E0000C0F02D150EA013613D195EA0C0F05D157
:1006F00052EA03361CBF104619460AD181EA0301AB
:1007000001F0004141F0FE4141F470014FF0000062
:1007100070BD41F0FE4141F4780170BD70B54FF0FD
:10072000FF0C4CF4E06C1CEA11541DBF1CEA13557D
:1007300094EA0C0F95EA0C0F00F0A7F8A4EB05045F
:1007400081EA030E52EA03354FEA013100F0888056
:100750004FEA03334FF0805545EA131343EA12631F
:100760004FEA022245EA111545EA10654FEA0026D4
:100770000EF000419D4208BF964244F1FD0404F58D
:10078000407402D25B084FEA3202B61A65EB0305E9
:100790005B084FEA32024FF480104FF4002CB6EBA6
:1007A000020E75EB030E22BFB61A754640EA0C0026
:1007B0005B084FEA3202B6EB020E75EB030E22BF66
:1007C000B61A754640EA5C005B084FEA3202B6EBA7
:1007D000020E75EB030E22BFB61A754640EA9C0066
:1007E0005B084FEA3202B6EB020E75EB030E22BF36
:1007F000B61A754640EADC0055EA060E18D04FEAF4
:10080000051545EA16754FEA06164FEAC30343EA93
:1008100052734FEAC2025FEA1C1CC0D111F4801F60
:100820000BD141EA00014FF000004FF0004CB6E759
:1008300011F4801F04BF01430020B4F1FD0C88BFF8
:10084000BCF5E06F3FF6AFAEB5EB030C04BFB6EB03
:10085000020C5FEA500C50F1000041EB045170BDF6
:100860000EF0004E4EEA113114EB5C04C2BFD4EB23
:100870000C0541EA045170BD41F480114FF0000EA7
:10088000013C90E645EA060E8DE60CEA135594EA23
:100890000C0F08BF95EA0C0F3FF43BAF94EA0C0F26
:1008A0000AD150EA01347FF434AF95EA0C0F7FF49B
:1008B00025AF104619462CE795EA0C0F06D152EAEF
:1008C00003353FF4FDAE1046194622E750EA4106D3
:1008D00018BF52EA43067FF4C5AE50EA41047FF4E4
:1008E0000DAF52EA43057FF4EBAE12E74FF0FF3C49
:1008F00006E000BF4FF0010C02E000BF4FF0010C1A
:100900004DF804CD4FEA410C7FEA6C5C4FEA430C92
:1009100018BF7FEA6C5C1BD001B050EA410C0CBFE1
:1009200052EA430C91EA030F02BF90EA020F002043
:10093000704710F1000F91EA030F58BF994208BFAA
:1009400090422CBFD8176FEAE37040F00100704767
:100950004FEA410C7FEA6C5C02D150EA013C07D1BE
:100960004FEA430C7FEA6C5CD6D152EA033CD3D009
:100970005DF8040B704700BF8446104662468C4603
:100980001946634600E000BF01B5FFF7B7FF002836
:1009900048BF10F1000F01BD4DF808EDFFF7F4FF5F
:1009A0000CBF012000205DF808FB00BF4DF808EDEA
:1009B000FFF7EAFF34BF012000205DF808FB00BF0D
:1009C0004DF808EDFFF7E0FF94BF012000205DF82F
:1009D00008FB00BF4DF808EDFFF7CEFF94BF0120E4
:1009E00000205DF808FB00BF4DF808EDFFF7C4FFDD
:1009F00034BF012000205DF808FB00BF4FEA410230
:100A000012F5001215D211D56FF47873B3EB625260
:100A100012D94FEAC12343F0004343EA505311F087
:100A2000004F23FA02F018BF404270474FF0000019
:100A3000704750EA013005D111F0004008BF6FF057
:100A4000004070474FF00000704700BF4A0011D2CD
:100A500012F5001211D20DD56FF47873B3EB625218
:100A60000ED44FEAC12343F0004343EA505323FA24
:100A700002F070474FF00000704750EA013002D199
:100A80004FF0FF3070474FF00000704780F000409B
:100A900002E000BF81F0004142001FBF5FEA410356
:100AA00092EA030F7FEA226C7FEA236C6AD04FEA56
:100AB0001262D2EB1363C1BFD2184140484041409B
:100AC000B8BF5B42192B88BF704710F0004F40F44D
:100AD000000020F07F4018BF404211F0004F41F469
:100AE000000121F07F4118BF494292EA030F3FD035
:100AF000A2F1010241FA03FC10EB0C00C3F1200348
:100B000001FA03F100F0004302D5494260EB4000D6
:100B1000B0F5000F13D3B0F1807F06D340084FEA41
:100B2000310102F10102FE2A51D2B1F1004F40EB36
:100B3000C25008BF20F0010040EA0300704749009E
:100B400040EB0000013A28BFB0F5000FEDD2B0FA3B
:100B500080FCACF1080CB2EB0C0200FA0CF0AABF5E
:100B600000EBC25052421843BCBFD04018437047FC
:100B700092F0000F81F4000106BF80F40000013202
:100B8000013BB5E74FEA41037FEA226C18BF7FEAD9
:100B9000236C21D092EA030F04D092F0000F08BF1B
:100BA0000846704790EA010F1CBF0020704712F002
:100BB0007F4F04D1400028BF40F00040704712F141
:100BC00000723CBF00F50000704700F0004343F0A6
:100BD000FE4040F4000070477FEA226216BF0846DC
:100BE0007FEA23630146420206BF5FEA412390EA9F
:100BF000010F40F4800070474FF0000304E000BF95
:100C000010F0004348BF40425FEA000C08BF704745
:100C100043F0964301464FF000001CE050EA010209
:100C200008BF70474FF000030AE000BF50EA01021E
:100C300008BF704711F0004302D5404261EB41010B
:100C40005FEA010C02BF84460146002043F0B64330
:100C500008BFA3F18053A3F50003BCFA8CF2083A55
:100C6000A3EBC25310DB01FA02FC634400FA02FC5E
:100C7000C2F12002BCF1004F20FA02F243EB020065
:100C800008BF20F00100704702F1200201FA02FCC7
:100C9000C2F1200250EA4C0021FA02F243EB0200BA
:100CA00008BF20EADC7070474FF0FF0C1CEAD052FE
:100CB0001EBF1CEAD15392EA0C0F93EA0C0F6FD0BF
:100CC0001A4480EA010C400218BF5FEA41211ED09D
:100CD0004FF0006343EA501043EA5111A0FB013189
:100CE0000CF00040B1F5000F3EBF490041EAD3715E
:100CF0005B0040EA010062F17F02FD2A1DD8B3F1DA
:100D0000004F40EBC25008BF20F00100704790F048
:100D1000000F0CF0004C08BF49024CEA502040EA9A
:100D200051207F3AC2BFD2F1FF0340EAC250704760
:100D300040F400004FF00003013A5DDC12F1190F9E
:100D4000DCBF00F000407047C2F10002410021FA10
:100D500002F1C2F1200200FA02FC5FEA310040F128
:100D6000000053EA4C0308BF20EADC70704792F0A1
:100D7000000F00F0004C02BF400010F4000F013AD9
:100D8000F9D040EA0C0093F0000F01F0004C02BFD4
:100D9000490011F4000F013BF9D041EA0C018FE743
:100DA0000CEAD15392EA0C0F18BF93EA0C0F0AD049
:100DB00030F0004C18BF31F0004CD8D180EA01006F
:100DC00000F00040704790F0000F17BF90F0004F08
:100DD000084691F0000F91F0004F14D092EA0C0FEA
:100DE00001D142020FD193EA0C0F03D14B0218BF7D
:100DF000084608D180EA010000F0004040F0FE40C3
:100E000040F40000704740F0FE4040F4400070475E
:100E10004FF0FF0C1CEAD0521EBF1CEAD15392EADD
:100E20000C0F93EA0C0F69D0A2EB030280EA010CCD
:100E300049024FEA402037D04FF0805343EA111166
:100E400043EA10130CF000408B4238BF5B0042F1C4
:100E50007D024FF4000C8B4224BF5B1A40EA0C0069
:100E6000B3EB510F24BFA3EB510340EA5C00B3EB9B
:100E7000910F24BFA3EB910340EA9C00B3EBD10F89
:100E800024BFA3EBD10340EADC001B0118BF5FEADB
:100E90001C1CE0D1FD2A3FF650AF8B4240EBC25004
:100EA00008BF20F0010070470CF0004C4CEA5020C5
:100EB0007F32C2BFD2F1FF0340EAC250704740F414
:100EC00000004FF00003013A37E792F0000F00F006
:100ED000004C02BF400010F4000F013AF9D040EA84
:100EE0000C0093F0000F01F0004C02BF490011F418
:100EF000000F013BF9D041EA0C0195E70CEAD15310
:100F000092EA0C0F08D142027FF47DAF93EA0C0FF6
:100F10007FF470AF084676E793EA0C0F04D14B02DA
:100F20003FF44CAF08466EE730F0004C18BF31F08C
:100F3000004CCAD130F000427FF45CAF31F0004386
:100F40007FF43CAF5FE700BF4FF0FF3C06E000BF1F
:100F50004FF0010C02E000BF4FF0010C4DF804CD42
:100F60004FEA40024FEA41037FEA226C18BF7FEA52
:100F7000236C11D001B052EA530C18BF90EA010F54
:100F800058BFB2EB030088BFC81738BF6FEAE170E3
:100F900018BF40F0010070477FEA226C02D15FEA7F
:100FA000402C05D17FEA236CE4D15FEA412CE1D0EB
:100FB0005DF8040B704700BF844608466146FFE7B2
:100FC0000FB5FFF7C9FF002848BF10F1000F0FBD94
:100FD0004DF808EDFFF7F4FF0CBF012000205DF88D
:100FE00008FB00BF4DF808EDFFF7EAFF34BF012012
:100FF00000205DF808FB00BF4DF808EDFFF7E0FFAB
:1010000094BF012000205DF808FB00BF4DF808EDFB
:10101000FFF7D2FF94BF012000205DF808FB00BF5E
:101020004DF808EDFFF7C8FF34BF012000205DF840
:1010300008FB00BF844641EA000313F0030349D1D3
:10104000403A23D30B6803604B6843608B6883602E
:10105000CB68C3600B6903614B6943618B69836132
:10106000CB69C3610B6A03624B6A43628B6A83621A
:10107000CB6AC3620B6B03634B6B43638B6B836302
:10108000CB6BC36340304031403ADBD230320BD3BC
:101090000B6803604B6843608B688360CB68C360F8
:1010A00010301031103AF3D20C3205D351F8043B12
:1010B00040F8043B043AF9D2043208D0D2071CBFEE
:1010C00011F8013B00F8013B01D30B880380604617
:1010D000704700BF082A13D38B07B1D010F0030369
:1010E000AED0C3F10403D21ADB071CBF11F8013BD9
:1010F00000F8013BA4D331F8023B20F8023B9FE704
:10110000043AD9D3013A11F8013B00F8013BF9D276
:101110000B7803704B7843708B7883706046704710
:101120004FEA410C7FEA6C5C02D150EA013C0AD1E3
:101130004FEA430C7FEA6C5C02D152EA033C02D1D5
:101140004FF0000070474FF00100704753B94AB9A3
:10115000002908BF00281CBF4FF0FF314FF0FF30BF
:1011600000F076B9ADF1080C6DE904CE00F006F898
:10117000DDF804E0DDE9022304B070472DE9F04713
:10118000089E0D4604468846002B4DD18A4294465F
:1011900068D9B2FA82F252B101FA02F3C2F1200127
:1011A00020FA01F10CFA02FC41EA030894404FEAEC
:1011B0001C41B8FBF1F71FFA8CFE01FB178807FBF7
:1011C0000EF0230C43EA084398420AD91CEB0303B0
:1011D00007F1FF3580F01E81984240F21B81023FEB
:1011E00063441B1AB3FBF1F001FB103300FB0EFE4E
:1011F000A4B244EA0344A6450AD91CEB040400F156
:10120000FF3380F00981A64540F20681644402382C
:101210000021A4EB0E0440EA07401EB10023D44095
:10122000C6E90043BDE8F0878B4208D9002E00F0E4
:10123000EE800021C6E900050846BDE8F087B3FA54
:1012400083F100294AD1AB4202D3824200F2FC80F2
:10125000841A65EB030301209846002EE2D0C6E90C
:101260000048DFE702B9FFDEB2FA82F2002A40F05E
:101270009180A1EB0C0001214FEA1C471FFA8CFE64
:10128000B0FBF7F307FB1300250C45EA00450EFB06
:1012900003F0A84208D91CEB050503F1FF3802D280
:1012A000A84200F2CE8043462D1AB5FBF7F007FBAB
:1012B00010550EFB00FEA4B244EA0544A64508D929
:1012C0001CEB040400F1FF3502D2A64500F2B68003
:1012D0002846A4EB0E0440EA03409EE7C1F1200734
:1012E0008B4022FA07FC4CEA030C25FA07FA4FEA76
:1012F0001C49BAFBF9F820FA07F309FB18AA8D403C
:101300001FFA8CFE1D4300FA01F308FB0EF02C0CB3
:1013100044EA0A44A04202FA01F20BD91CEB04048D
:1013200008F1FF3A80F08880A04240F28580A8F161
:1013300002086444241AB4FBF9F009FB104400FBD2
:101340000EFEADB245EA0444A64508D91CEB0404E0
:1013500000F1FF356CD2A6456AD90238644440EAF0
:101360000840A0FB0295A4EB0E04AC42C846AE4672
:1013700056D353D0002E69D0B3EB080264EB0E04B1
:1013800022FA01F304FA07F71F43CC40C6E90074C0
:10139000002147E70CFA02FCC2F1200125FA01F313
:1013A0004FEA1C4720FA01F195400D43B3FBF7F1DA
:1013B00007FB11331FFA8CFE280C40EA034001FBA7
:1013C0000EF3834204FA02F408D91CEB000001F189
:1013D000FF382FD283422DD902396044C01AB0FBA6
:1013E000F7F307FB1300ADB245EA004503FB0EF02F
:1013F000A84208D91CEB050503F1FF3816D2A84214
:1014000014D9023B6544281A43EA014138E73146C2
:10141000304607E72F46E4E61846F9E64B45A9D2E1
:10142000B9EB020865EB0C0E0138A3E74346EAE787
:10143000284694E74146D1E7D0467BE7644402382A
:1014400047E7023B65442FE7084606E73146E9E6F1
:10145000704700BF00B585B000230193029303934A
:101460001048114A02608360037303754FF46022D1
:10147000C26143600123036101F0FAF960B90023FE
:10148000019301220292039301A9064801F06AF830
:1014900028B905B05DF804FB00F0E6FBEFE700F0CB
:1014A000E3FBF6E7EC0900200024014000B587B01B
:1014B000002302930393049305930268114B9A420D
:1014C00002D007B05DF804FB03F56C439A6942F45F
:1014D00000729A619A6902F400720092009A9A6905
:1014E00042F004029A619B6903F004030193019B9B
:1014F000012302930323039302A9034801F008FC8C
:10150000DFE700BF002401400008014070B584B04F
:1015100001248DF80F400B4D6426009623460DF1F3
:101520000F024621284602F019F810238DF80F30DB
:10153000009623460DF10F024621284602F00EF8D0
:1015400004B070BD1C0A002000B585B06423009370
:10155000022303AA47210E4802F0BCF888B99DF87F
:101560000C009DF80D3043EA0020FEF743FF4FF0DA
:101570003332084BFFF7D2F8FFF740FA05B05DF8B9
:1015800004FB054803F0E6FE4FF0FF30F6E700BF2E
:101590001C0A00203333F33FA8B2000800B585B021
:1015A00000230093019302930393202300930123CC
:1015B0000293032303936946024801F0A9FB05B097
:1015C0005DF804FB0008014000B585B000230093DE
:1015D0000193029303932023009301230193029329
:1015E000032303936946034801F092FB05B05DF8BD
:1015F00004FB00BF0008014010B5FFF7E5FF094CF0
:1016000000222021204601F09CFC142000F0D0FE96
:1016100001222021204601F094FC1E2000F096FDBE
:1016200010BD00BF0008014010B5FFF7B7FF002450
:101630002021124801F07EFC012807D1632C05D837
:101640000134E4B2012000F081FDF1E7632C11D8F0
:10165000002404E00134E4B2012000F077FD2021F1
:10166000064801F067FC08B9632CF3D9632C03D852
:10167000002010BD0120FCE70120FAE7000801402E
:1016800010B5002404E00134E4B2012000F05EFD56
:101690002021114801F04EFC01281AD1632CF2D907
:1016A000002404E00134E4B2012000F04FFD2021C9
:1016B000094801F03FFC08B9632CF3D9282000F059
:1016C00045FD2021044801F035FC012800D0002010
:1016D00010BD0024EBE700BF0008014038B500252D
:1016E000284607E04000C4B2FFF7CAFF2043C0B25B
:1016F0000135EDB2072DF5D938BDF0B583B00546FB
:101700000E46FFF779FFFFF78FFF10B90746044633
:101710000AE0012719E0FFF7E1FF04F108036B4439
:1017200003F8080C0134E4B2042CF4D99DF800103D
:101730009DF801300B449DF8022013449DF80300EE
:1017400003449DF80400834202D0384603B0F0BD44
:1017500031702A70F9E700002DE9F04188B00024CB
:101760000494059406940794254B9A6942F010025C
:101770009A619A6902F010020092009A9A6942F006
:1017800020029A619A6902F020020192019A9A69F4
:1017900042F004029A619A6902F004020292029AEB
:1017A0009A6942F008029A619B6903F00803039367
:1017B000039BDFF8508022464FF40051404601F071
:1017C000C0FB114D22462021284601F0BAFB4FF400
:1017D000005304930127059706940226079604A94F
:1017E000404601F095FA2023049305970694079646
:1017F00004A9284601F08CFA08B0BDE8F08100BFCA
:1018000000100240001001400008014008B50B48DC
:101810000B4B03600B4B436000238360C3604FF4AA
:101820008042026143618361C361036201F0B8FDDC
:1018300000B908BD00F018FAFBE700BF1C0A002041
:1018400000540040A086010010B586B0002302932A
:101850000393049305930268114B9A4201D006B09A
:1018600010BD104CA36943F00803A361A36903F002
:1018700008030093009BC0230293122303930323C6
:10188000059302A9084801F043FAE36943F4001301
:10189000E361E36903F400130193019BDFE700BFF9
:1018A0000054004000100240000C01400B4B8342EA
:1018B00004D00B4B1B78962B08D07047094B0122A4
:1018C0001A70074A137801331370F2E7054B0322AD
:1018D0001A70034B00221A70EFE700BF100B0020B4
:1018E000710A0020720A002008B50AE0124B00229B
:1018F0001A70124B03221A704FF40051104801F075
:1019000026FB0E4B1B78ABB90B4B1B78032BEDD092
:10191000042B08D0012BEFD1074B00221A70074B84
:1019200001221A70E8E7044B00221A70034B0222CE
:101930001A70E1E708BD00BF720A0020700A00209B
:101940000010014010B582B0124B1B682B2B18D031
:10195000B3F1FF3F15D001330E4A1360FFF7F4FDDA
:101960000D4C608000F008FAA080009063886278D7
:1019700021780A4803F08CFC094B02221A7002B04D
:1019800010BD044C002323600348411CFFF7B5FE43
:101990002060E3E700000020740A0020BCB20008C9
:1019A000700A0020000000002DE9F04788B06E4C5E
:1019B000A088FFF725F96D49FFF72AFA804660886D
:1019C000FFF71AF904466A49FFF70CFB30B9694979
:1019D0002046FFF725FB10B1664C00E0644C6449DB
:1019E0002046FFF757F86449FFF712FA82465E4C2B
:1019F0002078FFF701F905466078FFF7FDF8044607
:101A00005E492846FFF7EEFA30B95D492846FFF7F0
:101A100007FB10B15A4D00E0584D5A492046FFF7D8
:101A2000E1FA30B958492046FFF7FAFA10B1564C9E
:101A300000E0544C51492846FFF72CF85349FFF772
:101A4000E7F905464F492046FFF724F84D49FFF7CF
:101A5000DFF904464FF07F514046FFF725F906466F
:101A60004B492846FFF720F901463046FFF714F8A6
:101A7000064648492046FFF717F901463046FFF76A
:101A80000BF806464FF03F415046FFF70DF901466F
:101A90003046FFF701F88146FEF7BEFC06460F46CA
:101AA0002DA3D3E90023FEF781FF00282DD02E4B74
:101AB000FA229A712C4B9979374B1B685963374836
:101AC00003F0E6FB4046FEF7A7FC80468946CDE9D9
:101AD00006675046FEF7A0FCCDE904012046FEF75C
:101AE0009BFCCDE902012846FEF796FCCDE90001FA
:101AF00042464B462A4803F0CBFB0023294A137089
:101B0000294A137008B0BDE8F0874FF07A51484673
:101B1000FFF768FA18B1144BC8229A71CAE710A3EC
:101B2000D3E9002330463946FEF740FF18B10E4B8B
:101B3000B4229A71BEE74FF07C514846FFF752FA43
:101B400018B1094BA0229A71B4E7074B96229A71FB
:101B5000B0E700BFAFF300809A9999999999C93F6E
:101B60009A9999999999D93F740A00200000C8421E
:101B700000007A4400606A47007866470000A04190
:101B800000000C42000020420000A0420000704112
:101B9000CDCCCCBDCDCCCC3D800A002008B3000814
:101BA0002CB30008720A0020700A002038B5284DB6
:101BB00095F800C0274C84F804C095F801E084F83B
:101BC00005E0AA88100AA071D2B2E2716B88190AE6
:101BD0002172DBB26372AC79962C0BD0A02C2AD088
:101BE000B42C2CD0C82C2ED0FA2C06D1194C04259C
:101BF000A57202E0174C0025A572F4445FFA8CFC34
:101C00006044C0B20244D2B20A44D2B21344DBB23E
:101C100010498A7A1344CB724FF47A730C220E481F
:101C200003F0A3F80D4803F095FB00230C4A137052
:101C30000C4A137038BD074C0125A572DDE7054C31
:101C40000225A572D9E7034C0325A572D5E700BF8D
:101C5000740A002004000020E00B002084B3000878
:101C6000720A0020700A002072B6FEE700B595B037
:101C7000282200210DEB020003F0B8FA002305939F
:101C80000693079308930993019302930393049394
:101C900001220A924FF480330B930E92022211928A
:101CA00012934FF4E01313930AA801F0CBFEC8B9C6
:101CB0000F23059302210691002307934FF48062BE
:101CC0000892099305A802F0FDF868B90223019370
:101CD0004FF40043039301A802F0D0F930B915B0D6
:101CE0005DF804FBFFF7C0FFFFF7BEFFFFF7BCFF87
:101CF00008B500F039FBFFF7B9FFFFF72DFDFFF73F
:101D0000A9FBFFF783FD00F03BFA00F053FA00F067
:101D1000FBF800F0D9F900F021F9FFF7F7FB0021FB
:101D2000054802F083FE4FF47A7000F041FB03484F
:101D300002F0A4FB08BD00BF800A0020100B0020A9
:101D400008B5FFF7D5FF01E0FFF7FCFD084B1B7856
:101D5000022B06D0032B07D0012BF5D0FFF7C4FDD3
:101D6000F4E7FFF721FEF1E7FFF720FFEEE700BF02
:101D7000700A00200000000038B5174C204600F023
:101D8000D7FC6421204600F027FB204600F0E6FB4C
:101D90000546204600F0F0FDA8B2FEF72BFB0AA393
:101DA000D3E90023FEF790FB09A3D3E90023FEF754
:101DB000D5F9FEF74BFE80B2642800D838BD642008
:101DC000FCE700BFAFF30080144551144551A4BF98
:101DD0000CC3300CC3F06340EC09002082B00E4B02
:101DE0009A6942F001029A619A6902F00102009236
:101DF000009ADA6942F08052DA61DB6903F08053BD
:101E00000193019B054A536823F0E06343F000739C
:101E1000536002B0704700BF001002400000014054
:101E2000FEE7FEE7FEE7FEE7FEE770477047704714
:101E300008B500F0ABFA08BD08B5024800F0C6FED0
:101E400008BD00BF580B002008B5024802F04EFB49
:101E500008BD00BF100B002008B5034B01221A700B
:101E6000024803F071F808BD730A0020E00B00205F
:101E70000120704708B503F08FF9162303604FF077
:101E8000FF3008BD08B54FF0FF31FFF7F3FFFEE765
:101E900070B50C461646002506E0AFF300802146DB
:101EA00001F8010B01350C46B542F6DB304670BD3A
:101EB00008B503460B4A126842B10A4A1068034447
:101EC0006A46934206D8074A136008BD054A064988
:101ED0001160F2E703F060F90C2303604FF0FF306C
:101EE000F3E700BF7C0A0020700C00204FF0FF30A9
:101EF00070474FF400534B6000207047012070473B
:101F0000002070477047000000B583B000230093A5
:101F100001931048104A02604722426083604FF6E6
:101F2000FF72C26003618361082102F02FFC50B987
:101F30000023009301936946064802F0E5FD28B9A5
:101F400003B05DF804FBFFF78FFEF1E7FFF78CFEAF
:101F5000F6E700BFC80A00200004004000B587B0C3
:101F6000002302930393049305930093019316486F
:101F7000164A026041F61F424260836040F2F3124B
:101F8000C26003618023836102F0A8FB90B94FF423
:101F90008053029302A90C4802F0CCFC68B90023DC
:101FA000009301936946084802F0AEFD40B907B0BE
:101FB0005DF804FBFFF758FEE9E7FFF755FEEEE793
:101FC000FFF752FEF3E700BF100B002000080040AF
:101FD0000368B3F1804F00D0704782B003F504333B
:101FE000DA6942F00102DA61DB6903F0010301936F
:101FF000019B02B0704700000268094B9A4200D072
:10200000704782B003F50333DA6942F00202DA6105
:10201000DB6903F002030193019B02B0704700BF2C
:102020000004004002680E4B9A4200D0704700B591
:1020300083B003F50233DA6942F00402DA61DB6946
:1020400003F004030193019B002201211E2000F0F4
:10205000BFFC1E2000F0F4FC03B05DF804FB00BFE1
:102060000008004000B587B0002302930393049357
:1020700005930368B3F1804F02D007B05DF804FB0D
:1020800003F504339A6942F004029A619B6903F0F4
:1020900004030193019B4FF4004302930223039333
:1020A000059302A9064800F033FE064A536823F45C
:1020B000407343F0E06343F480735360DDE700BF97
:1020C000000801400000014000B58BB000230893D8
:1020D0000993019302930393049305930693079343
:1020E00019484FF08042026040F2CF224260836084
:1020F00040F2CF72C26003618023836102F01AFB59
:10210000C0B900230893099308A90F4802F0FCFC0A
:1021100098B960230193002202920392059201A9CB
:10212000094802F093FB58B90748FFF79BFF0BB033
:102130005DF804FBFFF798FDE3E7FFF795FDE8E79F
:10214000FFF792FDF0E700BF800A002010B584B2CF
:10215000C4F57F44FA34A4B2084803685C6202F014
:102160004BF903E0054B1B685C6AA4B24FF6F973A8
:102170009C42F7D9014802F06DF910BDC80A002051
:1021800008B50A480A4B03604FF4E133436000236B
:102190008360C36003610C2242618361C36102F00A
:1021A000B5FD00B908BDFFF75FFDFBE79C0B002004
:1021B0000038014008B50A480A4B03604FF4E13388
:1021C000436000238360C36003610C22426183612A
:1021D000C36102F09BFD00B908BDFFF745FDFBE7B9
:1021E000E00B00200044004070B588B00023049349
:1021F00005930693079303683C4A934205D004462F
:102200003B4A93422BD008B070BD3A4B9A6942F4D6
:1022100080429A619A6902F480420092009A9A6917
:1022200042F004029A619B6903F004030193019B4D
:102230004FF40073049302230593032307932E4C5A
:1022400004A9204600F064FD4FF48063049300234A
:102250000593069304A9204600F05AFDD3E7254BC9
:10226000DA6942F40032DA61DA6902F40032029289
:10227000029A9A6942F004029A619B6903F004038E
:102280000393039B042304930223059303230793DF
:10229000194E04A9304600F03BFD082304930025A5
:1022A0000595069504A9304600F032FD1348144BFD
:1022B0000360456085608023C36005614561856179
:1022C0004FF40053C36100F0DDFB58B90B4BA3631F
:1022D0005C6200221146262000F07AFB262000F0E6
:1022E000AFFB90E7FFF7C0FCF0E700BF003801400C
:1022F000004400400010024000080140580B00203C
:102300006C00024010B51446642392B2024802F0F9
:102310002CFD204610BD00BF9C0B002010B50446CC
:102320000E4B18784FF47A73B3FBF0F30C4A106835
:10233000B0FBF3F000F092FB68B90F2C01D901203B
:102340000AE0002221464FF0FF3000F041FB054B30
:102350001C60002000E0012010BD00BF180000201C
:10236000140000201C00002008B5074A136843F041
:1023700010031360032000F019FB0F20FFF7CEFFBE
:10238000FFF72CFD002008BD00200240034A116821
:10239000034B1B780B441360704700BF240C0020D4
:1023A00018000020014B1868704700BF240C002063
:1023B00038B50446FFF7F6FF0546B4F1FF3F02D0FB
:1023C000044B1B781C44FFF7EDFF401BA042FAD3DF
:1023D00038BD00BF18000020F0B583B005460C469C
:1023E00000230193FFF7DEFF2B689A6812F4807FC9
:1023F00023D107465A6812F4807F03D1DB6A13F4B5
:10240000700F29D0504B1E68022001F0C3FEB6FBAE
:10241000F0F62B6819694D4A114236D1D96802F19C
:102420005C42114231D11969494A114240D1DA68FE
:10243000484B1A423ED0292041E0AB6A43F02003CA
:10244000AB62002385F82430012003B0F0BD2B6877
:102450001B6813F0020F0FD02B681B6813F0020FDC
:102460004FD1B4F1FF3FF7D0002CF0D0FFF79AFF27
:10247000C31BA342F0D9EAE7AB6A43F00403AB62A3
:10248000002385F824300320DFE71969304A114220
:1024900004D1D96802F16E4211420DD019692E4A59
:1024A0000A405AB9DA682C4B13405BB1FC2006E0B5
:1024B000292004E0142002E0542000E0FC2000FB6E
:1024C00006F607E05420FAE7019BB34210D3019BC4
:1024D00001330193019BB34213D2B4F1FF3FF6D015
:1024E000002CF1D0FFF75EFFC01BA042EFD9EBE755
:1024F000AB6A43F00403AB62002385F82430032069
:10250000A3E72B686FF012021A60AB6A43F4007302
:10251000AB622B689B6803F46023B3F5602F01D096
:10252000002092E7287B60B9AB6A23F48073AB622A
:10253000AB6A13F4805F88D1AB6A43F00103AB62EE
:1025400083E7002081E700BF140000202449922483
:102550009224491292244900499224000368D86CBD
:102560007047000030B482B00022019290F824201D
:10257000012A00F091800346012280F824204A6855
:10258000062A2DD80468606B02EB8202053A4FF0F0
:102590001F0C0CFA02FC20EA0C000D6805FA02F28E
:1025A000024362630A68092A3AD91C68E06802EBB0
:1025B00042021E3A4FF0070C0CFA02FC20EA0C0013
:1025C0008D6805FA02F20243E2600A68103A012AB5
:1025D00036D90020002283F8242002B030BC704796
:1025E0000C2A0ED80568286B02EB8202233A1F24BE
:1025F000944020EA04000C6804FA02F202432A63C1
:10260000D0E70568E86A02EB8202413A1F24944051
:1026100020EA04000C6804FA02F20243EA62C1E70D
:102620001C68206902EB42024FF0070C0CFA02FC16
:1026300020EA0C008D6805FA02F202432261C4E729
:102640001A681648824205D09A6A42F020029A62BD
:102650000120BFE7906810F4000F1BD1906840F490
:10266000000090600A68102A01D00020B2E70C4AEE
:1026700012680C49A1FB0212920C02EB820252007A
:10268000019202E0019A013A0192019A002AF9D1DD
:1026900000209FE700209DE702209EE700240140E4
:1026A0001400002083DE1B4330B583B00023019368
:1026B00003689A6812F0010F33D104469A6842F019
:1026C00001029A60184B1B68184AA2FB03239B0C5B
:1026D000019302E0019B013B0193019B002BF9D187
:1026E000FFF760FE054623689B6813F0010F16D1C3
:1026F000FFF758FE431B022BF5D923689B6813F0A4
:10270000010FF0D1A36A43F01003A362E36A43F020
:102710000103E362002384F82430012002E000205A
:1027200000E0002003B030BD1400002083DE1B4316
:1027300090F82430012B68D010B50446012380F8AE
:102740002430FFF7B1FF00285BD1A36A23F4407364
:1027500023F0010343F48073A36223682C4A93425D
:1027600027D0A26A22F48012A2625A6812F4806F03
:1027700005D0A26A22F4405242F48052A262A26AB8
:1027800012F4805F2BD0E26A22F00602E26200229D
:1027900084F824206FF002021A6023689A6802F419
:1027A0006022B2F5602F1DD09A6842F480129A60C0
:1027B0002AE0A2F58062526812F4702FD1D0A26A8A
:1027C00042F48012A262134A526812F4806FD6D08B
:1027D000A26A22F4405242F48052A262CFE7002261
:1027E000E262D4E70A4A934204D09A6842F4A00213
:1027F0009A6009E0A2F58062526812F4702FD3D17A
:10280000F3E7002384F8243010BD0220704700BF96
:10281000002801400024014038B503689A6812F08E
:10282000010F01D1002038BD04469A6822F0010250
:102830009A60FFF7B7FD054623689B6813F0010F08
:1028400013D0FFF7AFFD431B022BF5D923689B681C
:1028500013F0010FF0D0A36A43F01003A362E36A00
:1028600043F00103E3620120DDE70020DBE7000025
:1028700000287BD070B50446836A002B4DD02046DB
:10288000FFF7CAFFA36A13F0100369D1002867D1CC
:10289000A26A22F4885222F0020242F00202A262EC
:1028A0006268E1690A43217B42EA4102A568B5F505
:1028B000807F02D0012D36D01D46267D012E35D0D9
:1028C0002668716821F46941294371602568AE6802
:1028D000274931401143A960A168B1F5807F01D03B
:1028E000012902D12369013B1B052568E96A21F40E
:1028F00070010B43EB62236899681E4B0B409A42B0
:1029000025D0A36A23F0120343F01003A362E36A05
:1029100043F00103E362012027E0C36280F8243022
:10292000FEF7C4FDABE74FF48075C6E731B9A16986
:10293000013945EA413141F40065C1E7A16A41F03E
:102940002001A162E16A41F00101E162B8E70023E0
:10295000E362A36A23F0030343F00103A36204E0EC
:10296000A36A43F01003A362012070BD01207047E9
:10297000FDF7E1FFFE0E1FFF90F82430012B13D06E
:1029800010B50446012380F82430FFF745FF38B91D
:10299000A36A23F4885323F0010343F00103A362E5
:1029A000002384F8243010BD02207047074AD36802
:1029B00023F4E0631B041B0C000200F4E0600343FB
:1029C00043F0BF6343F40033D360704700ED00E091
:1029D00000B5194BDB68C3F30223C3F1070CBCF14C
:1029E000040F28BF4FF0040C03F1040EBEF1060FD4
:1029F00018D9033B4FF0FF3E0EFA0CFC21EA0C0104
:102A000099400EFA03F322EA0303194300280BDB73
:102A10000901C9B200F1604000F5614080F800137F
:102A20005DF804FB0023E5E700F00F000901C9B2DF
:102A3000024B1954F4E700BF00ED00E014ED00E094
:102A4000002807DB00F01F02400901239340024ADF
:102A500042F82030704700BF00E100E00138B0F1DB
:102A6000807F0BD24FF0E0235861054AF02182F8B5
:102A700023100020986107221A61704701207047D7
:102A800000ED00E060B310B402460168154B0B4442
:102A90001548A0FB03031B099B001364134BD3636E
:102AA000022382F82130086820F47F5020F03000A3
:102AB000536894682343D4682343146923435469B7
:102AC000234394692343D469234303430B600020C9
:102AD0009063012382F8213082F8200010BC7047F7
:102AE00001207047F8FFFDBFCDCCCCCC00000240E8
:102AF00090F82130022B06D004238363002380F852
:102B00002030012070470268136823F00E03136021
:102B10000268136823F001031360036CC16B012288
:102B200002FA03F34B6080F82120002380F8203064
:102B30001846704708B590F82130022B03D00423C3
:102B40008363012008BD0268136823F00E0313603D
:102B50000268136823F0010313600368194A934263
:102B600014D0143293421FD0143293421ED0143228
:102B700093421ED0143293421ED01432934202D09C
:102B80004FF0807203E04FF4801200E001220E4B00
:102B90005A60012380F82130002380F82030436BF5
:102BA0006BB198470020CDE71022F0E74FF4807218
:102BB000EDE74FF48052EAE74FF48032E7E7002078
:102BC000C0E700BF080002400000024038B5C36BF8
:102BD0001A6804682568016C04238B40134235D0C1
:102BE00015F0040F32D0236813F0200F03D12368AF
:102BF00023F0040323600368434A934214D0143241
:102C0000934218D01432934217D01432934217D003
:102C10001432934217D01432934202D04FF08062A4
:102C200003E04FF4800200E00422384B5A60C36A8C
:102C300003B1984738BD4022F7E74FF48062F4E7CC
:102C40004FF48042F1E74FF48022EEE702238B40FD
:102C500013423CD015F0020F39D0236813F0200F37
:102C600006D1236823F00A032360012380F8213072
:102C70000368254A934214D0143293421CD0143274
:102C800093421BD0143293421BD0143293421BD078
:102C90001432934202D04FF0007203E04FF400125E
:102CA00000E00222194B5A60002380F82030836A2A
:102CB000002BBFD09847BDE72022F3E74FF4007206
:102CC000F0E74FF40052EDE74FF40032EAE7082353
:102CD00003FA01F11142ADD015F0080FAAD0236814
:102CE00023F00E032360026CC16B012303FA02F28E
:102CF0004A60836380F82130002380F82030036B22
:102D0000002B97D0984795E708000240000002404A
:102D100070B582B00024A446A6E0804DAA4210D02F
:102D200007D97F4DAA420CD005F58035AA4208D0BC
:102D300013E0A5F58015AA4203D005F57025AA4237
:102D400007D18A68002A58D0012A51D0436108244B
:102D500003E0A5F58015AA42F3D0BEF1FF0F4ED8CF
:102D60000646BEF1FF0F4CD84FEA8C0233680F25A0
:102D7000954023EA050304FA02F2134333604B68DB
:102D800013F0805F6ED0674B9A6942F001029A613E
:102D90009B6903F001030193019B4FEA9C02951C80
:102DA000614B53F825600CF003039D000F23AB40EB
:102DB00026EA03065D4B984229D003F580639842CA
:102DC00000F08E8003F58063984200F08B8003F55D
:102DD0008063984219D004231AE0CC68BDE7CC6820
:102DE0000434BAE7CC680834B7E7CC680C34B4E7ED
:102DF00003610824B1E70024AFE70424ADE7061D12
:102E0000AFE7ACF108029200B0E7032300E0002333
:102E1000AB4033430232444D45F822304B6813F443
:102E2000803F61D0424A136843EA0E0313604B6847
:102E300013F4003F5ED03E4A536843EA0E035360EA
:102E40004B6813F4801F5BD0394A936843EA0E0342
:102E500093604B6813F4001F58D0354AD36843EA97
:102E60000E03D3600CF1010C0A6832FA0CF353D054
:102E7000012303FA0CF302EA030E33EA0202F1D152
:102E80004A68122A3FF649AF122A3FF666AF01A5FB
:102E900055F822F0432D0008DB2D0008E52D000831
:102EA000F72D00085B2D00085B2D00085B2D000846
:102EB0005B2D00085B2D00085B2D00085B2D0008D2
:102EC0005B2D00085B2D00085B2D00085B2D0008C2
:102ED0005B2D00085B2D0008DF2D0008EB2D00089E
:102EE000012395E7022393E7114A136823EA0E03AF
:102EF00013609CE70E4A536823EA0E0353609FE772
:102F00000B4A936823EA0E039360A2E7084AD3684A
:102F100023EA0E03D360A5E702B070BD00002210C3
:102F20000000311000100240000001400008014084
:102F3000000401408368194201D00120704700203D
:102F400070470AB101617047090401617047C368A5
:102F500001EA030221EA030141EA024101617047EB
:102F600003685A6912F4806F01D1002070476FF432
:102F700080625A6100230363202280F83D2080F89C
:102F80003E30026C42F00402026480F83C300120C2
:102F900070472DE9F04107460D4690461E4624E055
:102FA000FFF700FA069BC01AB04200D8EEB9002322
:102FB0003B63202287F83D2087F83E303A6C42F090
:102FC00020023A6487F83C3001201EE03B689C698F
:102FD00025EA040C1FFA8CFCBCFA8CFC4FEA5C1C42
:102FE000E04511D1B6F1FF3FDAD1C5F30743012B1C
:102FF000ECD13B685B6925EA030C1FFA8CFCBCFA38
:103000008CFC4FEA5C1CEBE70020BDE8F0812DE969
:10301000F04105460E46174698463DE01A6842F4D0
:1030200000721A602B686FF480625A6100232B6370
:10303000202285F83D2085F83E302A6C42F00402BB
:103040002A6485F83C30012034E0FFF7ABF9A0EBAF
:103050000800B84200D8FFB900232B63202285F86E
:103060003D2085F83E302A6C42F020022A6485F823
:103070003C3001201EE02B689C6926EA0404A4B2BF
:10308000003C18BF0124A4B12B685A6912F4806F68
:10309000C4D1B7F1FF3FD8D1C6F30743012BEAD122
:1030A0002B685C6926EA0404A4B2003C18BF012422
:1030B000E9E70020BDE8F081F0B583B004460D4695
:1030C00016461F46C36A082B0DD0012B0BD013F5F3
:1030D000803F08D0036B122B0AD10268136843F4B7
:1030E0008073136004E02268136843F480731360F4
:1030F0000097334600224FF001112046FFF749FFA9
:1031000080B92369B3F5804F16D1236805F0FE0519
:103110001D613B46324613492046FFF778FFF8B958
:1031200003B0F0BD23681B6813F4807F02D04FF416
:10313000007323640320F3E7EB11226803F0060316
:1031400043F0F00313613B46324607492046FFF740
:103150005EFF18B92368EDB21D61DAE70120DFE7F1
:103160000120DDE702000100080001002DE9F04127
:1031700084B004460D4616461F46C26A01680B68B5
:1031800043F480630B60082A0DD0012A0BD012F59E
:10319000803F08D0036B112B0AD10268136843F4F7
:1031A0008073136004E02268136843F48073136033
:1031B0000097334600224FF001112046FFF7E9FE49
:1031C00098B92369B3F5804F19D1236845F00105FB
:1031D000EDB21D613B4632462A492046FFF717FFF4
:1031E00000284CD104B0BDE8F08123681B6813F4BB
:1031F000807F02D04FF4007323640320F2E74FEA8C
:10320000E51808F00608236848F0F0021A613B460A
:1032100032461D492046FFF7FAFE08B10120E1E7DA
:103220002368EDB21D613B46324616492046FFF742
:10323000EEFE08B10120D5E7002203922368596908
:103240000391996903910399196841F48071196098
:10325000009733464FF001112046FFF79AFE20B940
:10326000226848F0F1031361B4E723681B6813F484
:10327000807F02D04FF4007323640320B2E7012063
:10328000B0E700BF020001000800010070B504466D
:103290000D46164623685B6913F0800F1CD120464B
:1032A000FFF75EFED0B9B5F1FF3FF3D0FFF77AF834
:1032B000801BA84201D8002DECD1002323632022DB
:1032C00084F83D2084F83E30226C42F020022264D3
:1032D00084F83C30012000E0002070BD0120FCE7B4
:1032E00070B504460D46164623685B6913F0040F5B
:1032F0001CD12046FFF734FED0B9B5F1FF3FF3D023
:10330000FFF750F8801BA84201D8002DECD1002314
:103310002363202284F83D2084F83E30226C42F062
:103320002002226484F83C30012000E0002070BDBF
:103330000120FCE770B505460C4616462B68596916
:1033400011F0400F29D1596911F0100F15D1FFF775
:1033500029F8801BA04201D8002CEFD100232B6359
:10336000202285F83D2085F83E302A6C42F020026C
:103370002A6485F83C30012070BD6FF010025A615C
:1033800000232B63202285F83D2085F83E302A6CEF
:103390002A6485F83C300120EEE70020ECE70000CD
:1033A000002800F0CC8070B5044690F83D30002B2A
:1033B00077D0242384F83D302268136823F001037A
:1033C00013602268136843F4004313602268136893
:1033D00023F40043136000F031FE62685A4B9A42B6
:1033E00064D85A4B98428CBF00230123002B40F035
:1033F000A8805749A1FB00318B0C25686A6822F030
:103400003F0242EA91426A6021680A6A22F03F0262
:1034100066684D4DAE424FD8013313430B622168AD
:10342000CA6922F44F4222F0FF026668464B9E4270
:103430004CD8431E7600B3FBF6F3013340F6FC7024
:10344000034278D0C3F30B031343CB6121680B68AD
:1034500023F0C003E269206A024313430B60216832
:103460008B6823F4034323F0FF032269E0680243DF
:1034700013438B602168CB6823F0FF036269A06966
:1034800002431343CB602268136843F001031360C7
:1034900000202064202384F83D30206384F83E001F
:1034A00070BD80F83C30FEF7CFF982E7294B984297
:1034B0008CBF0023012399E74FF4967505FB03F3B6
:1034C000254DA5FB03539B090133A6E7A368BBB9B0
:1034D000451E06EB460CB5FBFCF50135C5F30B05A7
:1034E000B5FA85F56D0945BBC3B9013806EB46034E
:1034F000B0FBF3F30133C3F30B0343F40043A3E73F
:10350000451E06EB860C0CEB8C0CB5FBFCF501356F
:10351000C5F30B05B5FA85F56D09E4E7013806EB4F
:10352000860303EB8303B0FBF3F30133C3F30B0315
:1035300043F4404388E7042386E7012384E701201E
:1035400070470120ACE700BFA08601007F841E0009
:1035500083DE1B43FF083D00D34D62102DE9F0438D
:1035600085B004460F46914698460C9EFEF71AFF1A
:10357000054694F83D00C0B2202804D00227384602
:1035800005B0BDE8F0830095192301224F4920467C
:10359000FFF7FFFC002840F0928094F83C30012BAC
:1035A00000F08F80012384F83C3023681A6812F001
:1035B000010F03D11A6842F001021A6022681368F1
:1035C00023F400631360212384F83D30102384F832
:1035D0003E3000232364C4F82490A4F82A80638D2D
:1035E00023853B4BE3622B46324639462046FFF7A4
:1035F00063FD0746002866D10023039323685A69B8
:1036000003929B690393039B11E0236C042B01D06D
:103610000127B4E72268136843F400731360F7E7E7
:103620002A4631462046FFF75BFE00282ED1238D27
:10363000002B36D02A4631462046FFF727FE0028C9
:10364000E3D1626A236812781A61606A431C63627C
:10365000618D89B2013989B26185238D013B9BB2AD
:1036600023852268516911F0040FD9D0002BD7D0DF
:1036700043781361636A01336362638D9BB2013BDC
:103680009BB26385238D013B2385C9E7236C042B03
:1036900001D0012773E72268136843F400731360B5
:1036A000F7E72268136843F400731360202384F85B
:1036B0003D30002384F83E3084F83C305FE7022739
:1036C0005DE702275BE7012759E700BF0200100012
:1036D0000000FFFF2DE9F04389B004460F469146F4
:1036E0009846109E00230793FEF75CFE054694F86B
:1036F0003D00C0B2202804D00227384609B0BDE8FA
:10370000F08300951923012280492046FFF741FCF0
:10371000002840F0708194F83C30012B00F06D815E
:10372000012384F83C3023681A6812F0010F03D19A
:103730001A6842F001021A602268136823F40063D9
:103740001360222384F83D30102384F83E30002398
:103750002364C4F82490A4F82A80638D23856C4BDD
:10376000E3622B46324639462046FFF7FFFC074608
:10377000002840F04481238D5BB9039323685A6984
:1037800003929A690392039A1A6842F400721A60CB
:10379000EEE0012B0FD0022B21D02268136843F4F6
:1037A000806313600023069323685A6906929B691D
:1037B0000693069BDCE02268136823F480631360A1
:1037C00072B60023049323685A6904929A6904929A
:1037D000049A1A6842F400721A6062B6C8E022685D
:1037E000136843F40063136072B6002305932368E3
:1037F0005A6905929A690592059A1A6822F48062BC
:103800001A6062B6B4E02A4631462046FFF792FDC0
:10381000002840F0F68023681A69636A1A70636AA8
:1038200001336362238D013B2385638D9BB2013B92
:103830009BB263859CE000953346002235492046C3
:10384000FFF7A7FB002840F0E0802268136823F40C
:103850008063136072B623681A69636A1A70636AB8
:1038600001336362238D013B2385638D9BB2013B52
:103870009BB26385284B1B68DB08284AA2FB032305
:103880001B0A03EB8303C3EBC303079307990139B7
:1038900007910799002928D023685A6912F0040F6C
:1038A000F4D01A6842F400721A6023681A69636AD5
:1038B0001A70636A01336362238D013B2385638D34
:1038C0009BB2013B9BB2638562B623681A69636A47
:1038D0001A70636A01336362238D013B2385638D14
:1038E0009BB2013B9BB2638542E00023236320220D
:1038F00084F83D2084F83E30226C42F0200222649D
:1039000062B684F83C300127F7E600BF02001000E1
:103910000000FFFF040001001400002089B5F81426
:103920002A4631462046FFF705FD00286FD123685F
:103930001A69636A1A70626A531C6362238D013BC1
:103940002385638D9BB2013B9BB2638523685969D4
:1039500011F0040F0CD01B695370636A013363626A
:10396000238D013B2385638D9BB2013B9BB2638515
:10397000218D002936D00329D2D801293FF443AF45
:1039800002297FF458AF0095334600222149204692
:10399000FFF7FFFA002836D172B62268136843F4A5
:1039A0000073136023681A69636A1A70636A0133CB
:1039B0006362238D013B2385638D9BB2013B9BB2E8
:1039C000638562B623681A69636A1A70636A013391
:1039D0006362238D013B2385638D9BB2013B9BB2C8
:1039E0006385C5E7202384F83D30002384F83E300A
:1039F00084F83C3081E602277FE602277DE6012736
:103A00007BE6012779E6012777E6012775E601279E
:103A100073E600BF0400010082B0084B1B68084A2F
:103A2000A2FB03235B0A00FB03F3019300BF019B8E
:103A30005A1E0192002BF9D102B0704714000020E9
:103A4000D34D6210002800F0F18170B582B00446B9
:103A5000036813F0010F2CD0994B5B6803F00C0343
:103A6000042B1DD0964B5B6803F00C03082B12D07F
:103A70006368B3F5803F41D0002B55D103F18043FB
:103A800003F504331A6822F480321A601A6822F4AB
:103A900080221A6037E08A4B5B6813F4803FE7D0DE
:103AA000874B1B6813F4003F03D06368002B00F0C2
:103AB000BF81236813F0020F75D0814B5B6813F050
:103AC0000C0F5FD07E4B5B6803F00C03082B54D0C7
:103AD0002369002B00F08A807A4B01221A60FEF7DE
:103AE00061FC0546764B1B6813F0020F75D1FEF79B
:103AF00059FC401B0228F5D903209EE1704A136847
:103B000043F480331360636843B3FEF74BFC054610
:103B10006B4B1B6813F4003FCBD1FEF743FC401BFB
:103B20006428F5D9032088E1B3F5A02F09D0644BB0
:103B30001A6822F480321A601A6822F480221A600D
:103B4000E1E703F18043A3F53C331A6842F4802295
:103B50001A601A6842F480321A60D4E7FEF722FC39
:103B60000546574B1B6813F4003FA2D0FEF71AFC22
:103B7000401B6428F5D903205FE1514B5B6813F4C7
:103B8000803FA5D14E4B1B6813F0020F03D0236971
:103B9000012B40F04F814A4A136823F0F803616912
:103BA00043EAC1031360236813F0080F33D0A369FD
:103BB000002B5CD0434B0122C3F88024FEF7F2FBBC
:103BC00005463F4B5B6A13F0020F21D1FEF7EAFB7B
:103BD000401B0228F5D903202FE1394A136823F04E
:103BE000F803616943EAC1031360DCE7354B002247
:103BF0001A60FEF7D7FB0546314B1B6813F0020F26
:103C0000D1D0FEF7CFFB401B0228F5D9032014E1E9
:103C10000120FFF701FF236813F0040F00F09680E6
:103C2000274BDB6913F0805F34D1254BDA6942F012
:103C30008052DA61DB6903F080530193019B012517
:103C4000214B1B6813F4807F26D0E368012B3DD005
:103C5000002B53D103F1804303F504331A6A22F099
:103C600001021A621A6A22F004021A6233E0154B4A
:103C70000022C3F88024FEF795FB0546104B5B6AD3
:103C800013F0020FC7D0FEF78DFB401B0228F5D9B9
:103C90000320D2E00025D3E70B4A136843F4807376
:103CA0001360FEF77FFB0646074B1B6813F4807F0B
:103CB000CBD1FEF777FB801B6428F5D90320BCE04D
:103CC0000010024000004242007000405F4A136A48
:103CD00043F001031362E36833B3FEF763FB064668
:103CE0005A4B1B6A13F0020F2FD1FEF75BFB801BB0
:103CF00041F288339842F3D903209EE0052B09D086
:103D0000524B1A6A22F001021A621A6A22F0040265
:103D10001A62E0E74D4B1A6A42F004021A621A6A0C
:103D200042F001021A62D6E7FEF73CFB0646474B1B
:103D30001B6A13F0020F08D0FEF734FB801B41F220
:103D400088339842F3D9032077E0E5B9E369002B83
:103D500072D03E4A526802F00C02082A56D0022B5A
:103D600017D03B4B00221A66FEF71CFB0446374B6C
:103D70001B6813F0007F47D0FEF714FB001B0228DE
:103D8000F5D9032059E0314AD36923F08053D36138
:103D9000DCE72F4B00221A66FEF704FB05462B4B8F
:103DA0001B6813F0007F06D0FEF7FCFA401B0228C8
:103DB000F5D9032041E0236AB3F5803F1AD02349A7
:103DC0004B6823F47413226A606A024313434B6006
:103DD0001F4B01221A66FEF7E5FA04461B4B1B68CF
:103DE00013F0007F0ED1FEF7DDFA001B0228F5D993
:103DF000032022E0154A536823F40033A1680B43E3
:103E00005360DCE7002018E0002016E0012B16D0FC
:103E10000E4B5B6803F48031226A914211D103F4A6
:103E20007013626A93420ED1002006E001207047B1
:103E3000012002E0012000E0002002B070BD01205E
:103E4000FBE70120F9E70120F7E700BF001002407F
:103E50000000424286B0174B0FCB0DF1180C0CE955
:103E60000F0040F20123ADF80430134B5B6803F000
:103E70000C02082A02D0114806B07047C3F38342EF
:103E800018326A4412F8100C13F4803F0DD00A4B1C
:103E90005B68C3F3404318336B4413F8143C074A80
:103EA00002FB00F0B0FBF3F0E6E7054B03FB00F08C
:103EB000E2E700BFC0B300080010024000127A0021
:103EC00000093D00002800F0A08070B50D460446B2
:103ED000524B1B6803F007038B420BD24F4A136807
:103EE00023F007030B431360136803F007038B42AF
:103EF00040F08D80236813F0020F17D013F0040FE9
:103F000004D0474A536843F4E0635360236813F0D6
:103F1000080F04D0424A536843F460535360404A48
:103F2000536823F0F003A1680B435360236813F038
:103F3000010F31D06368012B20D0022B25D0384AE5
:103F4000126812F0020F64D035494A6822F0030269
:103F500013434B60FEF726FA0646314B5B6803F0CD
:103F60000C036268B3EB820F16D0FEF71BFA801BBE
:103F700041F288339842F0D9032045E0284A12687C
:103F800012F4003FE0D101203EE0254A126812F011
:103F9000007FD9D1012037E0204B1B6803F00703D5
:103FA000AB420AD91D4A136823F007032B43136061
:103FB000136803F00703AB422DD1236813F0040FFD
:103FC00006D0174A536823F4E063E1680B4353605B
:103FD000236813F0080F07D0114A536823F4605385
:103FE000216943EAC1035360FFF734FF0C4B5B6860
:103FF000C3F303130B4AD35CD8400B4B18600B4B35
:104000001868FEF78BF9002070BD01207047012071
:10401000FAE70120F8E70120F6E700BF00200240A0
:1040200000100240A8B30008140000201C0000206B
:10403000014B1868704700BF1400002008B5FFF757
:10404000F7FF044B5B68C3F30223034AD35CD840F9
:1040500008BD00BF00100240B8B3000808B5FFF764
:10406000E7FF044B5B68C3F3C223034AD35CD84029
:1040700008BD00BF00100240B8B3000870B582B0A0
:104080000446036813F0010F36D03F4BDB6913F091
:10409000805F49D13C4BDA6942F08052DA61DB69DA
:1040A00003F080530193019B0125384B1B6813F4E7
:1040B000807F3BD0344B1B6A13F4407313D062688B
:1040C00002F440729A420ED02F4A136A23F44070D1
:1040D0002F490126C1F840640026C1F840641062EF
:1040E00013F0010F36D1284A136A23F44073616834
:1040F0000B431362002D3ED1236813F0020F06D04C
:10410000214A536823F44043A1680B43536023685A
:1041100013F0100F34D01C4A536823F48003E16875
:104120000B43536000202CE00025BEE7174A1368BC
:1041300043F480731360FEF735F90646134B1B6892
:1041400013F4807FB6D1FEF72DF9801B6428F5D9D2
:10415000032016E0FEF726F906460B4B1B6A13F008
:10416000020FC0D1FEF71EF9801B41F2883398423E
:10417000F3D9032005E0D36923F08053D361BBE773
:10418000002002B070BD00BF00100240007000406F
:104190000000424200B587B08446394B0FCB0DF189
:1041A000180E0EE90F0040F20123ADF80430BCF107
:1041B000020F56D0BCF1100F06D0BCF1010F2ED06B
:1041C000002007B05DF804FB2E4B5A68186810F009
:1041D0008070F6D0C2F3834318336B4413F8100C8D
:1041E00012F4803F17D0274B5B68C3F3404318336A
:1041F0006B4413F8142C244BB3FBF2F303FB00F0D5
:10420000204B5B6813F4800FDBD140001F4BA3FBF6
:1042100000304008D5E71E4B03FB00F0F0E7194BD8
:104220001B6A40F202321A40B2F5817F24D003F4B7
:104230004073B3F5007F04D0B3F5407F09D0002070
:10424000BFE7104A526A12F0020FF5D049F640401B
:10425000B7E70C4B186810F40030B2D04FF224408E
:10426000AFE7FFF7FBFE074B5B68C3F38133013316
:104270005B00B0FBF3F0A4E74FF40040A1E700BF00
:10428000C0B300080010024000127A00ABAAAAAA2C
:1042900000093D0070B4036A23F001030362036A5E
:1042A0004668826922F073020C6844EA020523F032
:1042B00002028B6813430D4CA04209D00B4CA04264
:1042C0000DD0466085614A684263036270BC7047E6
:1042D00023F00803CA68134323F00403EEE726F42F
:1042E00040764A6932438E691643EAE7002C014062
:1042F00030B4036A23F480730362036A4568C269B9
:1043000022F073020C68224323F400738C6843EAA2
:1043100004230F4CA04209D00D4CA0420ED04560A2
:10432000C2614A68C263036230BC704723F4006311
:10433000CC6843EA042323F48063EDE725F4405579
:104340004C6945EA04158C6945EA0415E7E700BFA6
:10435000002C014030B4036A23F480530362036AE3
:104360004468C26922F4E6420D6842EA052223F459
:1043700000538D6843EA0533074DA84206D04460D8
:10438000C2614A680264036230BC704724F480440E
:104390004D6944EA8514F2E7002C014010B4036A29
:1043A000046A24F001040462846924F0F00C4CEAED
:1043B000021223F00A030B438261036210BC7047B0
:1043C00010B4046A24F0100404628469036A24F4BB
:1043D000704C4CEA023223F0A00343EA01138261DD
:1043E000036210BC7047836823F070030B4343F0F3
:1043F000070383607047000090F83D30DBB2012B6B
:1044000022D1022380F83D300368114A934210D034
:10441000B3F1804F0DD0A2F59432934209D002F54A
:104420008062934205D01A6842F001021A600020AF
:1044300070479A6802F00702062A07D01A6842F00D
:1044400001021A6000207047012070470020704769
:10445000002C01400368196A41F21112114208D17F
:10446000196A40F24442114203D11A6822F0010253
:104470001A60012380F83D300020704790F83D30ED
:10448000DBB2012B27D1022380F83D300268D368CC
:1044900043F00103D3600368114A934210D0B3F193
:1044A000804F0DD0A2F59432934209D002F580627C
:1044B000934205D01A6842F001021A60002070474A
:1044C0009A6802F00702062A07D01A6842F0010231
:1044D0001A6000207047012070470020704700BF1D
:1044E000002C0140704770477047704710B5044674
:1044F00003681A6912F0020F11D0DA6812F0020F85
:104500000DD06FF002021A610123037703689B69E3
:1045100013F0030F70D0FFF7E6FF00232377236823
:104520001A6912F0040F12D0DA6812F0040F0ED0DC
:104530006FF004021A610223237723689B6913F446
:10454000407F5FD02046FFF7CEFF0023237723680C
:104550001A6912F0080F12D0DA6812F0080F0ED0A4
:104560006FF008021A61042323772368DB6913F0D4
:10457000030F4ED02046FFF7B6FF002323772368B2
:104580001A6912F0100F12D0DA6812F0100F0ED064
:104590006FF010021A61082323772368DB6913F494
:1045A000407F3DD02046FFF79EFF002323772368FE
:1045B0001A6912F0010F03D0DA6812F0010F36D138
:1045C00023681A6912F0800F03D0DA6812F0800FA6
:1045D00034D123681A6912F0400F03D0DA6812F060
:1045E000400F32D123681A6912F0200F03D0DA6825
:1045F00012F0200F30D110BDFFF774FF2046FFF7F7
:1046000073FF8AE72046FFF76DFF2046FFF76CFF38
:104610009BE72046FFF766FF2046FFF765FFACE704
:104620002046FFF75FFF2046FFF75EFFBDE76FF014
:1046300001021A612046FDF739F9C1E76FF08002E7
:104640001A61204600F097FAC3E76FF040021A6142
:104650002046FFF74AFFC5E76FF020021A612046A7
:1046600000F088FAC7E7000003681B4A90420AD0AE
:10467000B0F1804F07D0A2F59432904203D002F5FA
:104680008062904203D123F070034A681343124AB8
:1046900090420AD0B0F1804F07D0A2F594329042F8
:1046A00003D002F58062904203D123F44073CA68BC
:1046B000134323F080034A69134303608B68C3628A
:1046C0000B688362044B984202D001234361704718
:1046D0000B690363F9E700BF002C014040B310B53C
:1046E000044690F83D30F3B1022384F83D30214672
:1046F00051F8040BFFF7B8FF012384F8463084F823
:104700003E3084F83F3084F8403084F8413084F8FB
:10471000423084F8433084F8443084F8453084F8DB
:104720003D30002010BD80F83C30FDF77BFCDBE71E
:104730000120704740B310B5044690F83D30F3B106
:10474000022384F83D30214651F8040BFFF78CFF1B
:10475000012384F8463084F83E3084F83F3084F8F2
:10476000403084F8413084F8423084F8433084F893
:10477000443084F8453084F83D30002010BD80F886
:104780003C30FDF725FCDBE70120704750B338B51E
:104790000D46044690F83D30FBB1022384F83D30CD
:1047A000214651F8040BFFF75FFF2268136823F0DE
:1047B00008031360236819680D431D60012384F802
:1047C000463084F83E3084F83F3084F8423084F834
:1047D000433084F83D30002038BD80F83C30FDF790
:1047E0000BFCDAE70120704730B4036A23F01003B2
:1047F0000362036A4468826922F4E6420D6842EA71
:10480000052223F020038D6843EA05130E4DA842CC
:1048100009D00D4DA8420ED0446082614A6882637F
:10482000036230BC704723F08003CD6843EA051370
:1048300023F04003EDE724F440644D6944EA850425
:104840008D6944EA8504E7E7002C014038B590F80B
:104850003C30012B60D004460D46012380F83C30EB
:104860000C2A1AD8DFE802F0071919191D191919AD
:104870003119191944000068FFF70CFD226893698B
:1048800043F0080393612268936923F00403936162
:104890002268936929690B439361002084F83C00E6
:1048A00038BD0068FFF7A0FF2268936943F40063F6
:1048B00093612268936923F480639361226893690A
:1048C000296943EA01239361E7E70068FFF710FDD8
:1048D0002268D36943F00803D3612268D36923F0C7
:1048E0000403D3612268D36929690B43D361D4E7F8
:1048F0000068FFF72FFD2268D36943F40063D3619A
:104900002268D36923F48063D3612268D36929695B
:1049100043EA0123D361C0E70220C1E710B48468F1
:1049200024F47F4C42EA03220A4342EA0C028260EA
:1049300010BC704790F83C30012B66D010B504468F
:10494000012380F83C30022380F83D3002689368F0
:1049500023F47F4323F0770393600B68602B40D0F0
:1049600022D8402B47D00BD9502B0ED1CA684968AA
:104970000068FFF713FD50212068FFF734FD04E0C5
:10498000202B0CD008D9302B09D0012384F83D30DE
:10499000002084F83C0010BD0BB1102BF5D1194656
:1049A0002068FFF720FDF0E7702B0ED0B3F5005F15
:1049B000EBD1CB684A6889680068FFF7AFFF2268CF
:1049C000936843F480439360DFE7CB684A68896863
:1049D0000068FFF7A3FF2268936843F077039360B2
:1049E000D3E7CA6849680068FFF7EAFC60212068DD
:1049F000FFF7F9FCC9E7CA6849680068FFF7CEFC11
:104A000040212068FFF7EFFCBFE70220704701F06C
:104A10001F01012303FA01FC036A23EA0C0303626A
:104A2000036A02FA01F10B430362704710B50446B2
:104A3000084651BB94F83E30DBB2013B18BF01235E
:104A4000002B5BD1002839D1022384F83E300122AB
:104A500001462068FFF7DBFF23682A4A93423DD0D6
:104A60002368284A93423ED0B3F1804F3BD0A2F551
:104A70009432934237D002F58062934233D01A6861
:104A800042F001021A60002039E0042908D0082908
:104A90000DD094F84130DBB2013B18BF0123CFE7C2
:104AA00094F83F30DBB2013B18BF0123C8E794F80C
:104AB0004030DBB2013B18BF0123C1E7042805D019
:104AC000082807D0022384F84130C0E7022384F885
:104AD0003F30BCE7022384F84030B8E75A6C42F418
:104AE00000425A64BCE79A6802F00702062A07D01F
:104AF0001A6842F001021A60002000E0012010BD97
:104B00000020FCE7002C014090F83C30012B2CD019
:104B100010B4012380F83C30022380F83D30036854
:104B20005A689C6822F0700C0A6842EA0C025A60CB
:104B300003680F4A93420AD0B3F1804F07D0A2F521
:104B40009432934203D002F58062934204D124F060
:104B500080044A6814439C60012380F83D300023A0
:104B600080F83C30184610BC70470220704700BFE8
:104B7000002C0140704770470268D36823F490739B
:104B8000D3600268536923F001035361036B012B67
:104B900005D0202380F83E3000230363704702686D
:104BA000D36823F01003D360F3E790F83D30DBB215
:104BB000212B01D0022070478368B3F5805F17D0A6
:104BC000036A5A1C02621A7803685A60C38C9BB24B
:104BD000013B9BB2C3844BB90268D36823F08003C6
:104BE000D3600268D36843F04003D360002070476D
:104BF0000369002BE4D1036A1B880268C3F308032E
:104C00005360036A02330362E0E7000010B5044614
:104C10000268136923F44053C1680B43136183682E
:104C20000269134342691A430168CB6823F4B05305
:104C300023F00C031343CB600268536923F44073E1
:104C400081690B4353610268134B9A4220D0FFF7EE
:104C5000F5F9024602EB820202EB820263689B00D6
:104C6000B2FBF3F20D48A0FB02314909642303FBB8
:104C700011231B013233A0FB03235B0903F0F00275
:104C800002EB011203F00F03216813448B6010BD87
:104C9000FFF7E4F90246DDE7003801401F85EB51DC
:104CA0002DE9F84305460F4616469946DDF8208063
:104CB0002C68246837EA04030CBF4FF0010C4FF056
:104CC000000CB4451FD1B8F1FF3FF1D0B8F1000F8F
:104CD00005D0FDF767FBA0EB09004045E8D92A683D
:104CE000D36823F4D073D3602A68536923F0010397
:104CF0005361202385F83D3085F83E30002385F848
:104D00003C30032000E00020BDE8F88358B310B524
:104D1000044690F83D300BB3242384F83D302268DC
:104D2000D36823F40053D3602046FFF76FFF226857
:104D3000136923F4904313612268536923F02A0313
:104D400053612268D36843F40053D3600020206489
:104D5000202384F83D3084F83E3010BD80F83C308C
:104D6000FDF742FAD8E7012070472DE9F04182B003
:104D70001E4690F83D30DBB2202B54D104460D4640
:104D80009046002953D0002A53D090F83C30012B94
:104D900051D0012380F83C3000230364212380F8A4
:104DA0003D30FDF7FFFA0746A4F82480A4F82680DA
:104DB000A368B3F5805F05D04FF00008002384F8A6
:104DC0003C3012E0236913B14FF00008F6E7A84623
:104DD0000025F3E738F8023B2268C3F30803536069
:104DE000E28C92B2013A92B2E284E38C9BB273B14C
:104DF00000963B46002280212046FFF751FFE0B994
:104E0000002DE7D015F8012B23685A60E8E70096DB
:104E10003B46002240212046FFF742FF78B920237D
:104E200084F83D3000E0022002B0BDE8F0810120AE
:104E3000FAE70120F8E70220F6E70320F4E7032071
:104E4000F2E7704708B50168CA6822F04002CA60FC
:104E5000202280F83D20FFF7F4FF002008BD7047B6
:104E6000704708B5406A0023C385C384FFF7F8FF85
:104E700008BD704790F83E30DBB2222B60D18368CA
:104E8000B3F5805F46D0826AB3F5805F04D0002B13
:104E90004DD10369002B4AD103685B681370836AA4
:104EA00001338362C38D9BB2013B9BB2C385002B50
:104EB00048D100B583B00268D36823F02003D360E3
:104EC0000268D36823F48073D3600268536923F0C7
:104ED00001035361202380F83E30036B012B2CD15A
:104EE000002303630268D36823F01003D3600368D0
:104EF0001A6812F0100F06D0002201921A6801926F
:104F00005B680193019B818DFFF7B3FF002003B025
:104F10005DF804FB0269002AB5D1826A03685B6808
:104F2000C3F308031380836A02338362BAE703681A
:104F30005B6803F07F031370B1E7FFF790FFE5E7CD
:104F4000022070470020704730B583B004460268E5
:104F50001368D068516913F00F0505D113F0200FC5
:104F600002D010F0200F19D12DB111F0010119D18B
:104F700010F4907F16D1216B012975D013F0800FAA
:104F800003D010F0800F40F0D78013F0400F03D013
:104F900010F0400F40F0D48003B030BD2046FFF742
:104FA00069FFF9E713F0010F06D010F4807F03D0FA
:104FB000226C42F00102226413F0040F04D019B1F4
:104FC000226C42F00202226413F0020F04D019B1E5
:104FD000226C42F00402226413F0080F07D010F094
:104FE000200F00D119B1226C42F008022264226C19
:104FF000002AD1D013F0200F02D010F0200F21D1C1
:1050000023685B6903F04003226C12F0080F00D1A3
:1050100023B32046FFF7B0FD23685A6912F0400F12
:1050200018D05A6922F040025A61A36B73B1464A04
:105030005A63A06BFDF77EFD0028ADD0A06B436BDB
:105040009847A9E72046FFF715FFD9E72046FFF765
:1050500007FFA1E72046FFF703FF9DE72046FFF784
:10506000FFFE0023236497E713F0100F86D010F0A3
:10507000100F83D0002301931368019353680193A9
:10508000019B536913F0400F32D0A16B0B685B6832
:105090009BB2002B80D0A08D98427FF67DAFE38538
:1050A0008B69202B08D1A18DE38D9BB2C91A89B2DF
:1050B0002046FFF7DEFE6FE7D36823F48073D360EA
:1050C0002268536923F0010353612268536923F076
:1050D00040035361202384F83E3000232363226879
:1050E000D36823F01003D360A06BFDF701FDDAE76E
:1050F000A18DE38D9BB2C91A89B2E38D9BB2002BBF
:105100003FF44AAF00293FF447AFD36823F49073CC
:10511000D3602268536923F001035361202384F88C
:105120003E30002323632268D36823F01003D3604A
:105130002046FFF79EFE2FE72046FFF736FD2BE7C0
:105140002046FFF77FFE27E7634E00080C480D4915
:105150000D4A002302E0D458C4500433C4188C42D2
:10516000F9D30A4A0A4C002301E013600432A24238
:10517000FBD3FCF7C7FE00F015F8FCF7E1FD704724
:1051800000000020D0090020E4B70008D00900206A
:10519000700C0020FEE70000014B1868704700BF4C
:1051A0002000002070B50D4E0D4D761BB61006D0B8
:1051B000002455F8043B01349847A642F9D1094E22
:1051C000094D06F065F8761BB61006D0002455F898
:1051D000043B01349847A642F9D170BDD8B7000806
:1051E000D8B70008E0B70008D8B70008830730B583
:1051F00048D0541E002A3FD00346CAB201E0013C09
:105200003AD303F8012B9D07F9D1032C2DD9CDB248
:1052100045EA05250F2C45EA054536D9A4F11002CB
:1052200022F00F0C03F1200EE6444FEA121C03F1AA
:10523000100242E9045542E9025510327245F8D194
:105240000CF1010214F00C0F03EB021204F00F0C2E
:1052500013D0ACF1040323F003030433134442F8E6
:10526000045B9342FBD10CF003042CB1CAB21C4482
:1052700003F8012B9C42FBD130BD64461346002C41
:10528000F4D1F9E703461446BFE71A46A446E0E71F
:105290000FB400B5074A83B004AB106853F8042B71
:1052A0008168019300F08CF803B05DF804EB04B062
:1052B000704700BF2000002030B5054689B0084681
:1052C0000C4600F04FF801210223214A0494069273
:1052D000AA6B04AC0590084401940791AC68029352
:1052E000039022B3636E13F0010FB4F90C309AB23D
:1052F00001D1980525D5910406D4626E43F400537C
:1053000022F40052A3816266284601AA214603F0D6
:105310007BF9636E002814BF4FF0FF350A25DA07CA
:1053200002D4A3899B0506D5284609B030BD28467E
:1053300002F072FFD6E7A06D03F00CFB284609B01F
:1053400030BDA06D03F004FBB4F90C309AB2D2E783
:1053500004B30008024B01461868FFF7ADBF00BF59
:105360002000002020F0030110F00300C0F1000035
:1053700051F8043B00F1040C4FEACC0C6FF0000232
:105380001CBF22FA0CF213434FF0010C4CEA0C2C18
:105390004CEA0C4CA3EB0C0222EA030212EACC12F8
:1053A00004BF51F8043B0430F4D0C2F1000102EA1A
:1053B0000102B2FA82F2C2F11F0200EBD200704782
:1053C0002DE9F04FD5B01C4691460791054609904E
:1053D00003F0B6FA02680E9410461792FFF7C2FF68
:1053E00016901DB1AB6B002B00F01D82079A536E17
:1053F000DD0740F12D81B2F90C2091B28F0409D460
:10540000079B42F400529A8191B21A465B6E23F4D4
:10541000005353660E0740F1C080079B1B69002BA9
:1054200000F0BB8001F01A030A2B00F0C4800024B6
:105430002BAB224698464D46CDE929442893129439
:1054400000230024CDE914342B78CDE91922CDE9CD
:105450001B2218920B92002B00F08F81AA4604E0C9
:105460001AF8013F002B00F0BB80252BF8D1BAEBD6
:10547000050640F0B9809AF80030002B00F07D81DD
:1054800000234FF0FF324FF02B0920241F469AF8DB
:10549000016008920AF1010A8DF883300A930AF13B
:1054A000010AA6F120035A2B00F2E180DFE813F095
:1054B0000503DF00DF000003DF00DF00DF00DE02A6
:1054C000DF00DF006A006E02DF0055027802DF00B5
:1054D00073025B005B005B005B005B005B005B00DA
:1054E0005B005B00DF00DF00DF00DF00DF00DF00CC
:1054F000DF006C01DF00EA01C4016C016C016C018A
:10550000DF00DF00DF00DF00D002DF00DF0023026A
:10551000DF00DF00DF00F801DF009202DF00DF00C4
:105520008707DF00DF00DF00DF00DF00DF00DF00D4
:10553000DF006C01DF00EA01C6016C016C016C0147
:10554000B602C601BF01DF00C302DF005A02250216
:10555000A402BF01DF00F80172008407DF00DF0052
:105560006507DF0072000022A6F130031AF8016B14
:1055700002EB820203EB4202A6F13003092BF5D9BC
:105580000A928EE70E9B53F8042B002A0A920E9380
:10559000C0F2E0819AF8006081E7079D09982946EA
:1055A00001F0FCFC002841F04D83A98901F01A03A9
:1055B0000A2B7FF43CAF079AB2F90E30002BFFF6AE
:1055C00036AF536ED80702D4890541F1488123468E
:1055D0004A460799099855B0BDE8F04F01F09CBCC8
:1055E000BAEB050600F0C9802A9BC8E9005633448F
:1055F0002A93299B0133072B299305DC08F108081E
:105600000B9B33440B9336E70799099828AA04F0BB
:1056100021FC80B90DF1AC08F2E70799099828AA96
:1056200004F018FC002800F099800D9B1BB119466E
:10563000099802F0E9FE079A536ED90740F1E88015
:1056400093895B0601F10A830B9855B0BDE8F08F92
:10565000079BB3F90C20900591B23FF5CFAE1D46E4
:10566000986D03F075F9B5F90C2091B2C6E6002EDD
:1056700000F08380012300228DF8EC6006933BAD9F
:105680008DF883200C930D9208920F921392109232
:1056900017F0020302D006990231069117F0840B2D
:1056A00007D10A990698A1EB0009B9F1000F00F3A0
:1056B00090832A9C82B10122C8F80420299A0134DF
:1056C00001320DF18301072A2A942992C8F80010AB
:1056D00000F3D88308F108087BB10223C8F804302E
:1056E000299B0234013321AA072B2A942993C8F855
:1056F000002000F3D58308F10808BBF1800F00F00B
:105700008882089B0C9AA3EB020BBBF1000F00F3FD
:10571000CB82FB0500F11F820C9BC8F800501C4493
:10572000C8F80430299B2A940133072B299300F3EE
:10573000448308F10808780705D50A9B069A9D1A44
:10574000002D00F3B983DDE90A2306998A42ACBF34
:105750009B185B180B93002C7FF45FAF00232993F9
:105760000D9B1BB10D99099802F04EFE55460DF1A7
:10577000AC082B78002B7FF471AE2A9B002B41F0F4
:1057800010820023299356E70E9B073323F007026C
:10579000F2E80234CDE91434DDE9143424F0004495
:1057A000994618460E9221464FF0FF32AB4BFBF75D
:1057B000B7FC002840F01885484621464FF0FF32DC
:1057C000A64BFBF7FDF8002840F00E85DDE914013B
:1057D00000220023FBF7EAF8002840F065879DF8D7
:1057E0008320002103209E4D9E4B27F080070D91C2
:1057F0000690472EC8BF1D4608910C900F9113913B
:105800001091002A3FF444AF069B013306933FE713
:10581000079B9B899A053FF514AF079CA06D03F089
:1058200099F8A3890DE7099802F0F6FCDEE59AF8ED
:10583000006047F0200732E647F01007BA060E9BDB
:1058400040F16E84073323F007031A465B6852F871
:10585000084B99460E92002BC0F26F84089B0133CF
:1058600000F0FB8254EA090327F0800B40F0F68237
:10587000089B002B40F0F7825F46002354AD08934D
:105880000C933DE1012000220E9B069053F8041B6F
:105890003BAD8DF883208DF8EC100E930C90F2E662
:1058A0004FF000090E9C089B54F8045B8DF8839020
:1058B000002D00F0A1855A1C00F0A5861A46494625
:1058C000284603F065FB0D90002801F050810D9BE8
:1058D0009DF883205B1B0C9323EAE373CDF82090A3
:1058E0000E940693CDF83490CDF83C90CDF84C90C2
:1058F000CDF8409085E747F0100717F0200900F039
:10590000F2830E9B073323F00703D3F8049053F878
:10591000084B0E93002327F4806B00228DF8832020
:10592000089A511C00F0D48054EA09012BF080073A
:1059300040F0CD80002A40F00486002B9DD11BF062
:1059400001030C9300F0308430230DF24F158DF8D5
:105950004F31D5E00A9B5B420A939AF8006047F00A
:1059600004079CE5BD0600F1FD84FC0600F1EE8510
:10597000780600F1B286B90540F1E8850E9B0B99D7
:1059800053F8042B554611700E93F2E69AF8006016
:105990008DF8839083E59AF8006047F080077EE5F4
:1059A000524612F8016B2A2E01F08D82A6F13003C7
:1059B000092B924698BF002201F2E5801AF8016B8C
:1059C00002EB820203EB4202A6F13003092BF5D968
:1059D000089266E547F0100B1BF0200900F0918358
:1059E0000E9B073323F007031A4652F8084BD3F8EF
:1059F00004900E92012390E7302278260E9B8DF8BA
:105A0000842053F8044B184A0E934FF000090223E8
:105A100047F0020B8DF8856018927EE79AF80060D7
:105A2000682E03BF9AF8016047F400770AF1010A73
:105A300047F0400733E59AF800606C2E03BF9AF8F0
:105A4000016047F020070AF1010A47F0100726E538
:105A50009AF8006047F0080721E500BFFFFFEF7FDD
:105A6000D8B30008DCB30008E8B30008099E30464C
:105A700002F066FF436818461B93FFF773FC03466A
:105A800030461C931E4602F05BFF83681993002E7C
:105A90003FF480AD199B002B3FF47CAD199B1B7824
:105AA000002B3FF477AD9AF8006047F48067F6E486
:105AB0009AF8006047F00107F1E49DF88330002B6D
:105AC0007FF468AD9AF800608DF88340E7E4BB4648
:105AD000012B00F0C381022B54AD1FD1189A04F0A2
